{
  "contractName": "Exchange",
  "abi": [
    {
      "inputs": [
        {
          "internalType": "address",
          "name": "_feeAccount",
          "type": "address"
        },
        {
          "internalType": "uint256",
          "name": "_feePercent",
          "type": "uint256"
        }
      ],
      "stateMutability": "nonpayable",
      "type": "constructor"
    },
    {
      "anonymous": false,
      "inputs": [
        {
          "indexed": false,
          "internalType": "uint256",
          "name": "id",
          "type": "uint256"
        },
        {
          "indexed": false,
          "internalType": "address",
          "name": "user",
          "type": "address"
        },
        {
          "indexed": false,
          "internalType": "address",
          "name": "tokenGet",
          "type": "address"
        },
        {
          "indexed": false,
          "internalType": "uint256",
          "name": "amountGet",
          "type": "uint256"
        },
        {
          "indexed": false,
          "internalType": "address",
          "name": "tokenGive",
          "type": "address"
        },
        {
          "indexed": false,
          "internalType": "uint256",
          "name": "amountGive",
          "type": "uint256"
        },
        {
          "indexed": false,
          "internalType": "uint256",
          "name": "timestamp",
          "type": "uint256"
        }
      ],
      "name": "Cancel",
      "type": "event"
    },
    {
      "anonymous": false,
      "inputs": [
        {
          "indexed": false,
          "internalType": "address",
          "name": "token",
          "type": "address"
        },
        {
          "indexed": false,
          "internalType": "address",
          "name": "user",
          "type": "address"
        },
        {
          "indexed": false,
          "internalType": "uint256",
          "name": "amount",
          "type": "uint256"
        },
        {
          "indexed": false,
          "internalType": "uint256",
          "name": "balance",
          "type": "uint256"
        }
      ],
      "name": "Deposit",
      "type": "event"
    },
    {
      "anonymous": false,
      "inputs": [
        {
          "indexed": false,
          "internalType": "uint256",
          "name": "id",
          "type": "uint256"
        },
        {
          "indexed": false,
          "internalType": "address",
          "name": "user",
          "type": "address"
        },
        {
          "indexed": false,
          "internalType": "address",
          "name": "tokenGet",
          "type": "address"
        },
        {
          "indexed": false,
          "internalType": "uint256",
          "name": "amountGet",
          "type": "uint256"
        },
        {
          "indexed": false,
          "internalType": "address",
          "name": "tokenGive",
          "type": "address"
        },
        {
          "indexed": false,
          "internalType": "uint256",
          "name": "amountGive",
          "type": "uint256"
        },
        {
          "indexed": false,
          "internalType": "uint256",
          "name": "timestamp",
          "type": "uint256"
        }
      ],
      "name": "Order",
      "type": "event"
    },
    {
      "anonymous": false,
      "inputs": [
        {
          "indexed": false,
          "internalType": "uint256",
          "name": "id",
          "type": "uint256"
        },
        {
          "indexed": false,
          "internalType": "address",
          "name": "user",
          "type": "address"
        },
        {
          "indexed": false,
          "internalType": "address",
          "name": "tokenGet",
          "type": "address"
        },
        {
          "indexed": false,
          "internalType": "uint256",
          "name": "amountGet",
          "type": "uint256"
        },
        {
          "indexed": false,
          "internalType": "address",
          "name": "tokenGive",
          "type": "address"
        },
        {
          "indexed": false,
          "internalType": "uint256",
          "name": "amountGive",
          "type": "uint256"
        },
        {
          "indexed": false,
          "internalType": "uint256",
          "name": "timestamp",
          "type": "uint256"
        }
      ],
      "name": "Trade",
      "type": "event"
    },
    {
      "anonymous": false,
      "inputs": [
        {
          "indexed": false,
          "internalType": "address",
          "name": "token",
          "type": "address"
        },
        {
          "indexed": false,
          "internalType": "address",
          "name": "user",
          "type": "address"
        },
        {
          "indexed": false,
          "internalType": "uint256",
          "name": "amount",
          "type": "uint256"
        },
        {
          "indexed": false,
          "internalType": "uint256",
          "name": "balance",
          "type": "uint256"
        }
      ],
      "name": "WithDraw",
      "type": "event"
    },
    {
      "inputs": [],
      "name": "feeAccount",
      "outputs": [
        {
          "internalType": "address",
          "name": "",
          "type": "address"
        }
      ],
      "stateMutability": "view",
      "type": "function",
      "constant": true
    },
    {
      "inputs": [],
      "name": "feePercent",
      "outputs": [
        {
          "internalType": "uint256",
          "name": "",
          "type": "uint256"
        }
      ],
      "stateMutability": "view",
      "type": "function",
      "constant": true
    },
    {
      "inputs": [
        {
          "internalType": "uint256",
          "name": "",
          "type": "uint256"
        }
      ],
      "name": "orderCancel",
      "outputs": [
        {
          "internalType": "bool",
          "name": "",
          "type": "bool"
        }
      ],
      "stateMutability": "view",
      "type": "function",
      "constant": true
    },
    {
      "inputs": [],
      "name": "orderCount",
      "outputs": [
        {
          "internalType": "uint256",
          "name": "",
          "type": "uint256"
        }
      ],
      "stateMutability": "view",
      "type": "function",
      "constant": true
    },
    {
      "inputs": [
        {
          "internalType": "uint256",
          "name": "",
          "type": "uint256"
        }
      ],
      "name": "orderFill",
      "outputs": [
        {
          "internalType": "bool",
          "name": "",
          "type": "bool"
        }
      ],
      "stateMutability": "view",
      "type": "function",
      "constant": true
    },
    {
      "inputs": [
        {
          "internalType": "uint256",
          "name": "",
          "type": "uint256"
        }
      ],
      "name": "orders",
      "outputs": [
        {
          "internalType": "uint256",
          "name": "id",
          "type": "uint256"
        },
        {
          "internalType": "address",
          "name": "user",
          "type": "address"
        },
        {
          "internalType": "address",
          "name": "tokenGet",
          "type": "address"
        },
        {
          "internalType": "uint256",
          "name": "amountGet",
          "type": "uint256"
        },
        {
          "internalType": "address",
          "name": "tokenGive",
          "type": "address"
        },
        {
          "internalType": "uint256",
          "name": "amountGive",
          "type": "uint256"
        },
        {
          "internalType": "uint256",
          "name": "timestamp",
          "type": "uint256"
        }
      ],
      "stateMutability": "view",
      "type": "function",
      "constant": true
    },
    {
      "inputs": [
        {
          "internalType": "address",
          "name": "",
          "type": "address"
        },
        {
          "internalType": "address",
          "name": "",
          "type": "address"
        }
      ],
      "name": "tokens",
      "outputs": [
        {
          "internalType": "uint256",
          "name": "",
          "type": "uint256"
        }
      ],
      "stateMutability": "view",
      "type": "function",
      "constant": true
    },
    {
      "inputs": [],
      "name": "depositEther",
      "outputs": [],
      "stateMutability": "payable",
      "type": "function",
      "payable": true
    },
    {
      "inputs": [
        {
          "internalType": "address",
          "name": "_token",
          "type": "address"
        },
        {
          "internalType": "uint256",
          "name": "_amount",
          "type": "uint256"
        }
      ],
      "name": "depositToken",
      "outputs": [],
      "stateMutability": "nonpayable",
      "type": "function"
    },
    {
      "inputs": [
        {
          "internalType": "uint256",
          "name": "_amount",
          "type": "uint256"
        }
      ],
      "name": "withdrawEther",
      "outputs": [],
      "stateMutability": "nonpayable",
      "type": "function"
    },
    {
      "inputs": [
        {
          "internalType": "address",
          "name": "_token",
          "type": "address"
        },
        {
          "internalType": "uint256",
          "name": "_amount",
          "type": "uint256"
        }
      ],
      "name": "withdrawToken",
      "outputs": [],
      "stateMutability": "nonpayable",
      "type": "function"
    },
    {
      "inputs": [
        {
          "internalType": "address",
          "name": "_token",
          "type": "address"
        },
        {
          "internalType": "address",
          "name": "_user",
          "type": "address"
        }
      ],
      "name": "balanceOf",
      "outputs": [
        {
          "internalType": "uint256",
          "name": "",
          "type": "uint256"
        }
      ],
      "stateMutability": "view",
      "type": "function",
      "constant": true
    },
    {
      "inputs": [
        {
          "internalType": "address",
          "name": "_tokenGet",
          "type": "address"
        },
        {
          "internalType": "uint256",
          "name": "_amountGet",
          "type": "uint256"
        },
        {
          "internalType": "address",
          "name": "_tokenGive",
          "type": "address"
        },
        {
          "internalType": "uint256",
          "name": "_amountGive",
          "type": "uint256"
        }
      ],
      "name": "makeOrder",
      "outputs": [],
      "stateMutability": "nonpayable",
      "type": "function"
    },
    {
      "inputs": [
        {
          "internalType": "uint256",
          "name": "_id",
          "type": "uint256"
        }
      ],
      "name": "cancelOrder",
      "outputs": [],
      "stateMutability": "nonpayable",
      "type": "function"
    },
    {
      "inputs": [
        {
          "internalType": "uint256",
          "name": "_id",
          "type": "uint256"
        }
      ],
      "name": "fillOrder",
      "outputs": [],
      "stateMutability": "nonpayable",
      "type": "function"
    }
  ],
  "bytecode": "0x60806040523480156200001157600080fd5b50604051620027ea380380620027ea83398181016040528101906200003791906200012b565b816000806101000a81548173ffffffffffffffffffffffffffffffffffffffff021916908373ffffffffffffffffffffffffffffffffffffffff16021790555080600181905550505062000172565b600080fd5b600073ffffffffffffffffffffffffffffffffffffffff82169050919050565b6000620000b8826200008b565b9050919050565b620000ca81620000ab565b8114620000d657600080fd5b50565b600081519050620000ea81620000bf565b92915050565b6000819050919050565b6200010581620000f0565b81146200011157600080fd5b50565b6000815190506200012581620000fa565b92915050565b6000806040838503121562000145576200014462000086565b5b60006200015585828601620000d9565b9250506020620001688582860162000114565b9150509250929050565b61266880620001826000396000f3fe608060405260043610610105576000357c0100000000000000000000000000000000000000000000000000000000900480637fd6f15c116100a75780639e281a98116100765780639e281a98146102dc578063a85c38ef14610305578063c348ac6514610348578063f7888aec1461038557610105565b80637fd6f15c1461024157806398ea5fca1461026c5780639a5c90aa146102765780639bc896f91461029f57610105565b8063508493bc116100e3578063508493bc14610187578063514fcac7146101c457806365e17c9d146101ed57806367b830ad1461021857610105565b80632453ffa81461010a578063338b5dea146101355780633bed33ce1461015e575b600080fd5b34801561011657600080fd5b5061011f6103c2565b60405161012c9190611e43565b60405180910390f35b34801561014157600080fd5b5061015c60048036038101906101579190611eed565b6103c8565b005b34801561016a57600080fd5b5061018560048036038101906101809190611f2d565b610672565b005b34801561019357600080fd5b506101ae60048036038101906101a99190611f5a565b61090e565b6040516101bb9190611e43565b60405180910390f35b3480156101d057600080fd5b506101eb60048036038101906101e69190611f2d565b610933565b005b3480156101f957600080fd5b50610202610b16565b60405161020f9190611fa9565b60405180910390f35b34801561022457600080fd5b5061023f600480360381019061023a9190611f2d565b610b3a565b005b34801561024d57600080fd5b506102566113f7565b6040516102639190611e43565b60405180910390f35b6102746113fd565b005b34801561028257600080fd5b5061029d60048036038101906102989190611fc4565b6115c8565b005b3480156102ab57600080fd5b506102c660048036038101906102c19190611f2d565b611807565b6040516102d39190612046565b60405180910390f35b3480156102e857600080fd5b5061030360048036038101906102fe9190611eed565b611827565b005b34801561031157600080fd5b5061032c60048036038101906103279190611f2d565b611b58565b60405161033f9796959493929190612061565b60405180910390f35b34801561035457600080fd5b5061036f600480360381019061036a9190611f2d565b611bfa565b60405161037c9190612046565b60405180910390f35b34801561039157600080fd5b506103ac60048036038101906103a79190611f5a565b611c1a565b6040516103b99190611e43565b60405180910390f35b60065481565b600073ffffffffffffffffffffffffffffffffffffffff168273ffffffffffffffffffffffffffffffffffffffff160361040157600080fd5b8173ffffffffffffffffffffffffffffffffffffffff166323b872dd3330846040518463ffffffff167c010000000000000000000000000000000000000000000000000000000002815260040161045a939291906120d0565b6020604051808303816000875af1158015610479573d6000803e3d6000fd5b505050506040513d601f19601f8201168201806040525081019061049d9190612133565b6104a657600080fd5b61053581600260008573ffffffffffffffffffffffffffffffffffffffff1673ffffffffffffffffffffffffffffffffffffffff16815260200190815260200160002060003373ffffffffffffffffffffffffffffffffffffffff1673ffffffffffffffffffffffffffffffffffffffff16815260200190815260200160002054611ca190919063ffffffff16565b600260008473ffffffffffffffffffffffffffffffffffffffff1673ffffffffffffffffffffffffffffffffffffffff16815260200190815260200160002060003373ffffffffffffffffffffffffffffffffffffffff1673ffffffffffffffffffffffffffffffffffffffff168152602001908152602001600020819055507fdcbc1c05240f31ff3ad067ef1ee35ce4997762752e3a095284754544f4c709d7823383600260008773ffffffffffffffffffffffffffffffffffffffff1673ffffffffffffffffffffffffffffffffffffffff16815260200190815260200160002060003373ffffffffffffffffffffffffffffffffffffffff1673ffffffffffffffffffffffffffffffffffffffff168152602001908152602001600020546040516106669493929190612160565b60405180910390a15050565b80600260008073ffffffffffffffffffffffffffffffffffffffff1673ffffffffffffffffffffffffffffffffffffffff16815260200190815260200160002060003373ffffffffffffffffffffffffffffffffffffffff1673ffffffffffffffffffffffffffffffffffffffff1681526020019081526020016000205410156106fb57600080fd5b61078a81600260008073ffffffffffffffffffffffffffffffffffffffff1673ffffffffffffffffffffffffffffffffffffffff16815260200190815260200160002060003373ffffffffffffffffffffffffffffffffffffffff1673ffffffffffffffffffffffffffffffffffffffff16815260200190815260200160002054611cff90919063ffffffff16565b600260008073ffffffffffffffffffffffffffffffffffffffff1673ffffffffffffffffffffffffffffffffffffffff16815260200190815260200160002060003373ffffffffffffffffffffffffffffffffffffffff1673ffffffffffffffffffffffffffffffffffffffff168152602001908152602001600020819055503373ffffffffffffffffffffffffffffffffffffffff166108fc829081150290604051600060405180830381858888f19350505050158015610850573d6000803e3d6000fd5b507f2ffdfede8e3142dc22c86f615731d1d79115cf0652b6880e40eb6ef76ed86da260003383600260008073ffffffffffffffffffffffffffffffffffffffff1673ffffffffffffffffffffffffffffffffffffffff16815260200190815260200160002060003373ffffffffffffffffffffffffffffffffffffffff1673ffffffffffffffffffffffffffffffffffffffff168152602001908152602001600020546040516109039493929190612160565b60405180910390a150565b6002602052816000526040600020602052806000526040600020600091509150505481565b6000600360008381526020019081526020016000206040518060e0016040529081600082015481526020016001820160009054906101000a900473ffffffffffffffffffffffffffffffffffffffff1673ffffffffffffffffffffffffffffffffffffffff1673ffffffffffffffffffffffffffffffffffffffff1681526020016002820160009054906101000a900473ffffffffffffffffffffffffffffffffffffffff1673ffffffffffffffffffffffffffffffffffffffff1673ffffffffffffffffffffffffffffffffffffffff168152602001600382015481526020016004820160009054906101000a900473ffffffffffffffffffffffffffffffffffffffff1673ffffffffffffffffffffffffffffffffffffffff1673ffffffffffffffffffffffffffffffffffffffff16815260200160058201548152602001600682015481525050905081816000015114610a8f57600080fd5b60016004600084815260200190815260200160002060006101000a81548160ff0219169083151502179055507f77de1da0be5f2d3b110d05c6694e5c4ff2d9da7cd23d84353ecf78c7b5acec618160000151338360400151846060015185608001518660a0015142604051610b0a9796959493929190612061565b60405180910390a15050565b60008054906101000a900473ffffffffffffffffffffffffffffffffffffffff1681565b6000600360008381526020019081526020016000206040518060e0016040529081600082015481526020016001820160009054906101000a900473ffffffffffffffffffffffffffffffffffffffff1673ffffffffffffffffffffffffffffffffffffffff1673ffffffffffffffffffffffffffffffffffffffff1681526020016002820160009054906101000a900473ffffffffffffffffffffffffffffffffffffffff1673ffffffffffffffffffffffffffffffffffffffff1673ffffffffffffffffffffffffffffffffffffffff168152602001600382015481526020016004820160009054906101000a900473ffffffffffffffffffffffffffffffffffffffff1673ffffffffffffffffffffffffffffffffffffffff1673ffffffffffffffffffffffffffffffffffffffff16815260200160058201548152602001600682015481525050905081816000015114610c9657600080fd5b6000610cc46064610cb66001548560600151611d5890919063ffffffff16565b611dd290919063ffffffff16565b90508160a00151610cdd83608001518460200151611c1a565b1015610d1e576040517f08c379a0000000000000000000000000000000000000000000000000000000008152600401610d1590612202565b60405180910390fd5b610d35818360600151611ca190919063ffffffff16565b610d43836040015133611c1a565b1015610d84576040517f08c379a0000000000000000000000000000000000000000000000000000000008152600401610d7b9061226e565b60405180910390fd5b610e2d610d9e828460600151611ca190919063ffffffff16565b60026000856040015173ffffffffffffffffffffffffffffffffffffffff1673ffffffffffffffffffffffffffffffffffffffff16815260200190815260200160002060003373ffffffffffffffffffffffffffffffffffffffff1673ffffffffffffffffffffffffffffffffffffffff16815260200190815260200160002054611cff90919063ffffffff16565b60026000846040015173ffffffffffffffffffffffffffffffffffffffff1673ffffffffffffffffffffffffffffffffffffffff16815260200190815260200160002060003373ffffffffffffffffffffffffffffffffffffffff1673ffffffffffffffffffffffffffffffffffffffff16815260200190815260200160002081905550610f4c826060015160026000856040015173ffffffffffffffffffffffffffffffffffffffff1673ffffffffffffffffffffffffffffffffffffffff1681526020019081526020016000206000856020015173ffffffffffffffffffffffffffffffffffffffff1673ffffffffffffffffffffffffffffffffffffffff16815260200190815260200160002054611ca190919063ffffffff16565b60026000846040015173ffffffffffffffffffffffffffffffffffffffff1673ffffffffffffffffffffffffffffffffffffffff1681526020019081526020016000206000846020015173ffffffffffffffffffffffffffffffffffffffff1673ffffffffffffffffffffffffffffffffffffffff168152602001908152602001600020819055506110888160026000856040015173ffffffffffffffffffffffffffffffffffffffff1673ffffffffffffffffffffffffffffffffffffffff16815260200190815260200160002060008060009054906101000a900473ffffffffffffffffffffffffffffffffffffffff1673ffffffffffffffffffffffffffffffffffffffff1673ffffffffffffffffffffffffffffffffffffffff16815260200190815260200160002054611ca190919063ffffffff16565b60026000846040015173ffffffffffffffffffffffffffffffffffffffff1673ffffffffffffffffffffffffffffffffffffffff16815260200190815260200160002060008060009054906101000a900473ffffffffffffffffffffffffffffffffffffffff1673ffffffffffffffffffffffffffffffffffffffff1673ffffffffffffffffffffffffffffffffffffffff168152602001908152602001600020819055506111c48260a0015160026000856080015173ffffffffffffffffffffffffffffffffffffffff1673ffffffffffffffffffffffffffffffffffffffff16815260200190815260200160002060003373ffffffffffffffffffffffffffffffffffffffff1673ffffffffffffffffffffffffffffffffffffffff16815260200190815260200160002054611ca190919063ffffffff16565b60026000846080015173ffffffffffffffffffffffffffffffffffffffff1673ffffffffffffffffffffffffffffffffffffffff16815260200190815260200160002060003373ffffffffffffffffffffffffffffffffffffffff1673ffffffffffffffffffffffffffffffffffffffff168152602001908152602001600020819055506112e38260a0015160026000856080015173ffffffffffffffffffffffffffffffffffffffff1673ffffffffffffffffffffffffffffffffffffffff1681526020019081526020016000206000856020015173ffffffffffffffffffffffffffffffffffffffff1673ffffffffffffffffffffffffffffffffffffffff16815260200190815260200160002054611cff90919063ffffffff16565b60026000846080015173ffffffffffffffffffffffffffffffffffffffff1673ffffffffffffffffffffffffffffffffffffffff1681526020019081526020016000206000846020015173ffffffffffffffffffffffffffffffffffffffff1673ffffffffffffffffffffffffffffffffffffffff1681526020019081526020016000208190555060016005600085815260200190815260200160002060006101000a81548160ff0219169083151502179055507faba0fc968824c4949185cfdd55a197a4d41616a98cc2d97fd34224ebcdf76744826000015183602001518460400151856060015186608001518760a00151426040516113ea9796959493929190612061565b60405180910390a1505050565b60015481565b61148c34600260008073ffffffffffffffffffffffffffffffffffffffff1673ffffffffffffffffffffffffffffffffffffffff16815260200190815260200160002060003373ffffffffffffffffffffffffffffffffffffffff1673ffffffffffffffffffffffffffffffffffffffff16815260200190815260200160002054611ca190919063ffffffff16565b600260008073ffffffffffffffffffffffffffffffffffffffff1673ffffffffffffffffffffffffffffffffffffffff16815260200190815260200160002060003373ffffffffffffffffffffffffffffffffffffffff1673ffffffffffffffffffffffffffffffffffffffff168152602001908152602001600020819055507fdcbc1c05240f31ff3ad067ef1ee35ce4997762752e3a095284754544f4c709d760003334600260008073ffffffffffffffffffffffffffffffffffffffff1673ffffffffffffffffffffffffffffffffffffffff16815260200190815260200160002060003373ffffffffffffffffffffffffffffffffffffffff1673ffffffffffffffffffffffffffffffffffffffff168152602001908152602001600020546040516115be9493929190612160565b60405180910390a1565b806115d38333611c1a565b1015611614576040517f08c379a000000000000000000000000000000000000000000000000000000000815260040161160b906122da565b60405180910390fd5b61162a6001600654611ca190919063ffffffff16565b6006819055506040518060e0016040528060065481526020013373ffffffffffffffffffffffffffffffffffffffff1681526020018573ffffffffffffffffffffffffffffffffffffffff1681526020018481526020018373ffffffffffffffffffffffffffffffffffffffff168152602001828152602001428152506003600060065481526020019081526020016000206000820151816000015560208201518160010160006101000a81548173ffffffffffffffffffffffffffffffffffffffff021916908373ffffffffffffffffffffffffffffffffffffffff16021790555060408201518160020160006101000a81548173ffffffffffffffffffffffffffffffffffffffff021916908373ffffffffffffffffffffffffffffffffffffffff1602179055506060820151816003015560808201518160040160006101000a81548173ffffffffffffffffffffffffffffffffffffffff021916908373ffffffffffffffffffffffffffffffffffffffff16021790555060a0820151816005015560c082015181600601559050507f9d33853d43e3607b4cc01fdc78338ff2dca6fef7db9232dae6d3eb55fbc3b1096006543386868686426040516117f99796959493929190612061565b60405180910390a150505050565b60046020528060005260406000206000915054906101000a900460ff1681565b600073ffffffffffffffffffffffffffffffffffffffff168273ffffffffffffffffffffffffffffffffffffffff160361186057600080fd5b80600260008473ffffffffffffffffffffffffffffffffffffffff1673ffffffffffffffffffffffffffffffffffffffff16815260200190815260200160002060003373ffffffffffffffffffffffffffffffffffffffff1673ffffffffffffffffffffffffffffffffffffffff1681526020019081526020016000205410156118e957600080fd5b61197881600260008573ffffffffffffffffffffffffffffffffffffffff1673ffffffffffffffffffffffffffffffffffffffff16815260200190815260200160002060003373ffffffffffffffffffffffffffffffffffffffff1673ffffffffffffffffffffffffffffffffffffffff16815260200190815260200160002054611cff90919063ffffffff16565b600260008473ffffffffffffffffffffffffffffffffffffffff1673ffffffffffffffffffffffffffffffffffffffff16815260200190815260200160002060003373ffffffffffffffffffffffffffffffffffffffff1673ffffffffffffffffffffffffffffffffffffffff168152602001908152602001600020819055508173ffffffffffffffffffffffffffffffffffffffff1663a9059cbb33836040518363ffffffff167c0100000000000000000000000000000000000000000000000000000000028152600401611a4f9291906122fa565b6020604051808303816000875af1158015611a6e573d6000803e3d6000fd5b505050506040513d601f19601f82011682018060405250810190611a929190612133565b611a9b57600080fd5b7f2ffdfede8e3142dc22c86f615731d1d79115cf0652b6880e40eb6ef76ed86da2823383600260008773ffffffffffffffffffffffffffffffffffffffff1673ffffffffffffffffffffffffffffffffffffffff16815260200190815260200160002060003373ffffffffffffffffffffffffffffffffffffffff1673ffffffffffffffffffffffffffffffffffffffff16815260200190815260200160002054604051611b4c9493929190612160565b60405180910390a15050565b60036020528060005260406000206000915090508060000154908060010160009054906101000a900473ffffffffffffffffffffffffffffffffffffffff16908060020160009054906101000a900473ffffffffffffffffffffffffffffffffffffffff16908060030154908060040160009054906101000a900473ffffffffffffffffffffffffffffffffffffffff16908060050154908060060154905087565b60056020528060005260406000206000915054906101000a900460ff1681565b6000600260008473ffffffffffffffffffffffffffffffffffffffff1673ffffffffffffffffffffffffffffffffffffffff16815260200190815260200160002060008373ffffffffffffffffffffffffffffffffffffffff1673ffffffffffffffffffffffffffffffffffffffff16815260200190815260200160002054905092915050565b6000808284611cb09190612352565b905083811015611cf5576040517f08c379a0000000000000000000000000000000000000000000000000000000008152600401611cec906123d2565b60405180910390fd5b8091505092915050565b600082821115611d44576040517f08c379a0000000000000000000000000000000000000000000000000000000008152600401611d3b9061243e565b60405180910390fd5b8183611d50919061245e565b905092915050565b6000808303611d6a5760009050611dcc565b60008284611d789190612492565b9050828482611d879190612503565b14611dc7576040517f08c379a0000000000000000000000000000000000000000000000000000000008152600401611dbe906125a6565b60405180910390fd5b809150505b92915050565b6000808211611e16576040517f08c379a0000000000000000000000000000000000000000000000000000000008152600401611e0d90612612565b60405180910390fd5b8183611e229190612503565b905092915050565b6000819050919050565b611e3d81611e2a565b82525050565b6000602082019050611e586000830184611e34565b92915050565b600080fd5b600073ffffffffffffffffffffffffffffffffffffffff82169050919050565b6000611e8e82611e63565b9050919050565b611e9e81611e83565b8114611ea957600080fd5b50565b600081359050611ebb81611e95565b92915050565b611eca81611e2a565b8114611ed557600080fd5b50565b600081359050611ee781611ec1565b92915050565b60008060408385031215611f0457611f03611e5e565b5b6000611f1285828601611eac565b9250506020611f2385828601611ed8565b9150509250929050565b600060208284031215611f4357611f42611e5e565b5b6000611f5184828501611ed8565b91505092915050565b60008060408385031215611f7157611f70611e5e565b5b6000611f7f85828601611eac565b9250506020611f9085828601611eac565b9150509250929050565b611fa381611e83565b82525050565b6000602082019050611fbe6000830184611f9a565b92915050565b60008060008060808587031215611fde57611fdd611e5e565b5b6000611fec87828801611eac565b9450506020611ffd87828801611ed8565b935050604061200e87828801611eac565b925050606061201f87828801611ed8565b91505092959194509250565b60008115159050919050565b6120408161202b565b82525050565b600060208201905061205b6000830184612037565b92915050565b600060e082019050612076600083018a611e34565b6120836020830189611f9a565b6120906040830188611f9a565b61209d6060830187611e34565b6120aa6080830186611f9a565b6120b760a0830185611e34565b6120c460c0830184611e34565b98975050505050505050565b60006060820190506120e56000830186611f9a565b6120f26020830185611f9a565b6120ff6040830184611e34565b949350505050565b6121108161202b565b811461211b57600080fd5b50565b60008151905061212d81612107565b92915050565b60006020828403121561214957612148611e5e565b5b60006121578482850161211e565b91505092915050565b60006080820190506121756000830187611f9a565b6121826020830186611f9a565b61218f6040830185611e34565b61219c6060830184611e34565b95945050505050565b600082825260208201905092915050565b7fe5889be5bbbae88085e4bd99e9a29de4b88de8b6b30000000000000000000000600082015250565b60006121ec6015836121a5565b91506121f7826121b6565b602082019050919050565b6000602082019050818103600083015261221b816121df565b9050919050565b7fe4baa4e69893e88085e4bd99e9a29de4b88de8b6b30000000000000000000000600082015250565b60006122586015836121a5565b915061226382612222565b602082019050919050565b600060208201905081810360008301526122878161224b565b9050919050565b7fe5889be5bbbae8aea2e58d95e5bc8fe4bd99e9a29de4b88de8b6b30000000000600082015250565b60006122c4601b836121a5565b91506122cf8261228e565b602082019050919050565b600060208201905081810360008301526122f3816122b7565b9050919050565b600060408201905061230f6000830185611f9a565b61231c6020830184611e34565b9392505050565b7f4e487b7100000000000000000000000000000000000000000000000000000000600052601160045260246000fd5b600061235d82611e2a565b915061236883611e2a565b92508282019050808211156123805761237f612323565b5b92915050565b7f536166654d6174683a206164646974696f6e206f766572666c6f770000000000600082015250565b60006123bc601b836121a5565b91506123c782612386565b602082019050919050565b600060208201905081810360008301526123eb816123af565b9050919050565b7f536166654d6174683a207375627472616374696f6e206f766572666c6f770000600082015250565b6000612428601e836121a5565b9150612433826123f2565b602082019050919050565b600060208201905081810360008301526124578161241b565b9050919050565b600061246982611e2a565b915061247483611e2a565b925082820390508181111561248c5761248b612323565b5b92915050565b600061249d82611e2a565b91506124a883611e2a565b92508282026124b681611e2a565b915082820484148315176124cd576124cc612323565b5b5092915050565b7f4e487b7100000000000000000000000000000000000000000000000000000000600052601260045260246000fd5b600061250e82611e2a565b915061251983611e2a565b925082612529576125286124d4565b5b828204905092915050565b7f536166654d6174683a206d756c7469706c69636174696f6e206f766572666c6f60008201527f7700000000000000000000000000000000000000000000000000000000000000602082015250565b60006125906021836121a5565b915061259b82612534565b604082019050919050565b600060208201905081810360008301526125bf81612583565b9050919050565b7f536166654d6174683a206469766973696f6e206279207a65726f000000000000600082015250565b60006125fc601a836121a5565b9150612607826125c6565b602082019050919050565b6000602082019050818103600083015261262b816125ef565b905091905056fea26469706673582212200fcaa8efa4bfd202ad24991aaae4499e8f0553e86249fdae76716d379914df1c64736f6c63430008120033",
  "immutableReferences": {},
  "source": "// SPDX-License-Identifier: GPL-3.0\r\npragma solidity >=0.7.0 <0.9.0;\r\nimport  \"openzeppelin-solidity/contracts/math/SafeMath.sol\";\r\nimport \"./KerwinToken.sol\";\r\n\r\n// \r\n\r\ncontract Exchange {\r\n  using SafeMath for uint; //uint sub  add\r\n\r\n  // \r\n  // \r\n  event Deposit(address token, address user, uint amount, uint balance);\r\n  // \r\n  event WithDraw(address token, address user, uint amount, uint balance);\r\n  // \r\n  event Order ( uint id,address user,address tokenGet,uint amountGet,address tokenGive,uint amountGive,uint timestamp);\r\n  // \r\n  event Cancel ( uint id,address user,address tokenGet,uint amountGet,address tokenGive,uint amountGive,uint timestamp);\r\n  // \r\n  event Trade ( uint id,address user,address tokenGet,uint amountGet,address tokenGive,uint amountGive,uint timestamp);\r\n\r\n\r\n  // ()\r\n  address public feeAccount;\r\n  uint public feePercent; //\r\n  address constant ETHER = address(0); //01\r\n\r\n  // =  = \r\n  mapping(address => mapping(address => uint)) public tokens;\r\n\r\n  // \r\n  struct _Order {\r\n    uint id;\r\n    address user; //\r\n    address tokenGet; //\r\n    uint amountGet; //\r\n\r\n    address tokenGive; //\r\n    uint amountGive; //\r\n\r\n    uint timestamp; //\r\n  }\r\n  // \r\n  // [1,2,3]\r\n  // {\r\n  //   0:1,\r\n  //   1:2,\r\n  // }\r\n  // _Order[] public orderlist;//\r\n  mapping(uint => _Order) public orders; //\r\n  mapping(uint => bool) public orderCancel; // \r\n  mapping(uint => bool) public orderFill; // \r\n  // \r\n  uint public orderCount;\r\n\r\n\r\n  constructor(address _feeAccount, uint _feePercent){\r\n    feeAccount = _feeAccount;\r\n    feePercent = _feePercent;\r\n  }\r\n\r\n  //\r\n  //  ()\r\n  function depositEther() public payable {\r\n    // msg.sender\r\n    // msg.value\r\n    tokens[ETHER][msg.sender] = tokens[ETHER][msg.sender].add(msg.value);\r\n    // \r\n    emit Deposit(address(0), msg.sender, msg.value, tokens[ETHER][msg.sender]);\r\n  }\r\n\r\n  // \r\n  function depositToken(address _token, uint _amount) public {\r\n    require(_token != ETHER); //\r\n\r\n    //()\r\n    require(KerwinToken(_token).transferFrom(msg.sender, address(this), _amount));\r\n    // \r\n    tokens[_token][msg.sender] = tokens[_token][msg.sender].add(_amount);\r\n    // \r\n    emit Deposit(_token, msg.sender, _amount, tokens[_token][msg.sender]);\r\n\r\n  }\r\n\r\n\r\n  // \r\n  function withdrawEther(uint _amount) public {\r\n    require(tokens[ETHER][msg.sender] >= _amount);\r\n    tokens[ETHER][msg.sender] = tokens[ETHER][msg.sender].sub(_amount);\r\n    //payable\r\n    payable(msg.sender).transfer(_amount);\r\n    // \r\n    emit WithDraw(ETHER, msg.sender, _amount, tokens[ETHER][msg.sender]);\r\n  }\r\n\r\n\r\n  // \r\n  function withdrawToken(address _token, uint _amount) public {\r\n    require(_token != ETHER); //\r\n    require(tokens[_token][msg.sender] >= _amount);\r\n\r\n    tokens[_token][msg.sender] = tokens[_token][msg.sender].sub(_amount);\r\n    //  KerwinToken(_token).transfer  transfermsg.sender\r\n    require(KerwinToken(_token).transfer(msg.sender, _amount)); //msg.sender\r\n    //\r\n    emit WithDraw(_token, msg.sender, _amount, tokens[_token][msg.sender]);\r\n\r\n  }\r\n\r\n  // \r\n  function balanceOf(address _token, address _user) public view returns(uint) {\r\n    return tokens[_token][_user];\r\n  }\r\n\r\n\r\n\r\n  // makeOrder (  100KWT ==> 1ether)\r\n  function makeOrder(address _tokenGet, uint _amountGet, address _tokenGive, uint _amountGive) public {\r\n    require(balanceOf(_tokenGive, msg.sender) >= _amountGive, unicode\"\"); //\r\n\r\n    orderCount = orderCount.add(1);\r\n    orders[orderCount] = _Order(orderCount, msg.sender, _tokenGet,_amountGet,_tokenGive,_amountGive,block.timestamp);\r\n    // \r\n    emit Order(orderCount, msg.sender, _tokenGet,_amountGet,_tokenGive,_amountGive,block.timestamp);\r\n  }\r\n  // cancel\r\n  function cancelOrder(uint _id) public {\r\n    _Order memory myorder = orders[_id];\r\n    require(myorder.id == _id);\r\n    orderCancel[_id] = true;\r\n\r\n    // \r\n    emit Cancel(myorder.id, msg.sender,myorder.tokenGet,myorder.amountGet,myorder.tokenGive,myorder.amountGive,block.timestamp);\r\n  }\r\n  // fillOrder \r\n  function fillOrder(uint _id) public {\r\n    _Order memory myorder = orders[_id];\r\n    require(myorder.id == _id);\r\n\r\n    //   && \r\n    /**\r\n        \r\n           -> makeorder\r\n          100KWT ==> 1ether\r\n          msg.sender -> fillOrder\r\n        \r\n          1ether,100KWT\r\n          msg.sender100KWT,1ether\r\n     */\r\n    //   ((100x10)/100) -------- \r\n      uint feeAmount = myorder.amountGet.mul(feePercent).div(100);\r\n      require(balanceOf( myorder.tokenGive, myorder.user) >= myorder.amountGive, unicode\"\"); // \r\n      require(balanceOf( myorder.tokenGet, msg.sender) >= myorder.amountGet.add(feeAmount), unicode\"\"); // \r\n\r\n      //  KWT\r\n      tokens[myorder.tokenGet][msg.sender] = tokens[myorder.tokenGet][msg.sender].sub(myorder.amountGet.add(feeAmount));\r\n      tokens[myorder.tokenGet][myorder.user] = tokens[myorder.tokenGet][myorder.user].add(myorder.amountGet);\r\n      //  -------- \r\n      tokens[myorder.tokenGet][feeAccount] = tokens[myorder.tokenGet][feeAccount].add(feeAmount);\r\n      // ether\r\n      tokens[myorder.tokenGive][msg.sender] = tokens[myorder.tokenGive][msg.sender].add(myorder.amountGive);\r\n      tokens[myorder.tokenGive][myorder.user] = tokens[myorder.tokenGive][myorder.user].sub(myorder.amountGive);\r\n\r\n    // \r\n    orderFill[_id] = true;\r\n    // \r\n    emit Trade(myorder.id,myorder.user,myorder.tokenGet,myorder.amountGet,myorder.tokenGive,myorder.amountGive,block.timestamp);\r\n  }\r\n\r\n\r\n}",
  "sourcePath": "F:\\study\\web3\\kwin-web3\\myapp\\contract\\contracts\\Exchange.sol",
  "compiler": {
    "name": "solc",
    "version": "0.8.18+commit.87f61d96.Emscripten.clang"
  },
  "schemaVersion": "3.4.12",
  "updatedAt": "2023-02-23T06:47:28.733Z",
  "networkType": "ethereum",
  "devdoc": {
    "kind": "dev",
    "methods": {},
    "version": 1
  },
  "userdoc": {
    "kind": "user",
    "methods": {},
    "version": 1
  }
}