{
  "contractName": "StudentListStorage",
  "abi": [
    {
      "inputs": [
        {
          "internalType": "uint256",
          "name": "",
          "type": "uint256"
        }
      ],
      "name": "studentList",
      "outputs": [
        {
          "internalType": "uint256",
          "name": "id",
          "type": "uint256"
        },
        {
          "internalType": "string",
          "name": "name",
          "type": "string"
        },
        {
          "internalType": "uint256",
          "name": "age",
          "type": "uint256"
        },
        {
          "internalType": "address",
          "name": "account",
          "type": "address"
        }
      ],
      "stateMutability": "view",
      "type": "function",
      "constant": true
    },
    {
      "inputs": [
        {
          "internalType": "string",
          "name": "_name",
          "type": "string"
        },
        {
          "internalType": "uint256",
          "name": "_age",
          "type": "uint256"
        }
      ],
      "name": "addList",
      "outputs": [
        {
          "internalType": "uint256",
          "name": "",
          "type": "uint256"
        }
      ],
      "stateMutability": "nonpayable",
      "type": "function"
    },
    {
      "inputs": [],
      "name": "getList",
      "outputs": [
        {
          "components": [
            {
              "internalType": "uint256",
              "name": "id",
              "type": "uint256"
            },
            {
              "internalType": "string",
              "name": "name",
              "type": "string"
            },
            {
              "internalType": "uint256",
              "name": "age",
              "type": "uint256"
            },
            {
              "internalType": "address",
              "name": "account",
              "type": "address"
            }
          ],
          "internalType": "struct StudentListStorage.Student[]",
          "name": "",
          "type": "tuple[]"
        }
      ],
      "stateMutability": "view",
      "type": "function",
      "constant": true
    }
  ],
  "bytecode": "0x608060405234801561001057600080fd5b50610ca3806100206000396000f3fe608060405234801561001057600080fd5b506004361061005e576000357c0100000000000000000000000000000000000000000000000000000000900480636b29d35f146100635780637df221e914610093578063942b765a146100c6575b600080fd5b61007d600480360381019061007891906105b8565b6100e4565b60405161008a9190610623565b60405180910390f35b6100ad60048036038101906100a8919061063e565b6101e5565b6040516100bd949392919061072b565b60405180910390f35b6100ce6102cd565b6040516100db9190610904565b60405180910390f35b600080600080549050905060006001826100fe9190610955565b9050600060405180608001604052808381526020018781526020018681526020013373ffffffffffffffffffffffffffffffffffffffff1681525090806001815401808255809150506001900390600052602060002090600402016000909190919091506000820151816000015560208201518160010190816101819190610b9b565b506040820151816002015560608201518160030160006101000a81548173ffffffffffffffffffffffffffffffffffffffff021916908373ffffffffffffffffffffffffffffffffffffffff16021790555050506000805490509250505092915050565b600081815481106101f557600080fd5b906000526020600020906004020160009150905080600001549080600101805461021e906109b8565b80601f016020809104026020016040519081016040528092919081815260200182805461024a906109b8565b80156102975780601f1061026c57610100808354040283529160200191610297565b820191906000526020600020905b81548152906001019060200180831161027a57829003601f168201915b5050505050908060020154908060030160009054906101000a900473ffffffffffffffffffffffffffffffffffffffff16905084565b60606000805480602002602001604051908101604052809291908181526020016000905b8282101561041f57838290600052602060002090600402016040518060800160405290816000820154815260200160018201805461032e906109b8565b80601f016020809104026020016040519081016040528092919081815260200182805461035a906109b8565b80156103a75780601f1061037c576101008083540402835291602001916103a7565b820191906000526020600020905b81548152906001019060200180831161038a57829003601f168201915b50505050508152602001600282015481526020016003820160009054906101000a900473ffffffffffffffffffffffffffffffffffffffff1673ffffffffffffffffffffffffffffffffffffffff1673ffffffffffffffffffffffffffffffffffffffff1681525050815260200190600101906102f1565b50505050905090565b6000604051905090565b600080fd5b600080fd5b600080fd5b600080fd5b6000601f19601f8301169050919050565b7f4e487b7100000000000000000000000000000000000000000000000000000000600052604160045260246000fd5b61048f82610446565b810181811067ffffffffffffffff821117156104ae576104ad610457565b5b80604052505050565b60006104c1610428565b90506104cd8282610486565b919050565b600067ffffffffffffffff8211156104ed576104ec610457565b5b6104f682610446565b9050602081019050919050565b82818337600083830152505050565b6000610525610520846104d2565b6104b7565b90508281526020810184848401111561054157610540610441565b5b61054c848285610503565b509392505050565b600082601f8301126105695761056861043c565b5b8135610579848260208601610512565b91505092915050565b6000819050919050565b61059581610582565b81146105a057600080fd5b50565b6000813590506105b28161058c565b92915050565b600080604083850312156105cf576105ce610432565b5b600083013567ffffffffffffffff8111156105ed576105ec610437565b5b6105f985828601610554565b925050602061060a858286016105a3565b9150509250929050565b61061d81610582565b82525050565b60006020820190506106386000830184610614565b92915050565b60006020828403121561065457610653610432565b5b6000610662848285016105a3565b91505092915050565b600081519050919050565b600082825260208201905092915050565b60005b838110156106a557808201518184015260208101905061068a565b60008484015250505050565b60006106bc8261066b565b6106c68185610676565b93506106d6818560208601610687565b6106df81610446565b840191505092915050565b600073ffffffffffffffffffffffffffffffffffffffff82169050919050565b6000610715826106ea565b9050919050565b6107258161070a565b82525050565b60006080820190506107406000830187610614565b818103602083015261075281866106b1565b90506107616040830185610614565b61076e606083018461071c565b95945050505050565b600081519050919050565b600082825260208201905092915050565b6000819050602082019050919050565b6107ac81610582565b82525050565b600082825260208201905092915050565b60006107ce8261066b565b6107d881856107b2565b93506107e8818560208601610687565b6107f181610446565b840191505092915050565b6108058161070a565b82525050565b600060808301600083015161082360008601826107a3565b506020830151848203602086015261083b82826107c3565b915050604083015161085060408601826107a3565b50606083015161086360608601826107fc565b508091505092915050565b600061087a838361080b565b905092915050565b6000602082019050919050565b600061089a82610777565b6108a48185610782565b9350836020820285016108b685610793565b8060005b858110156108f257848403895281516108d3858261086e565b94506108de83610882565b925060208a019950506001810190506108ba565b50829750879550505050505092915050565b6000602082019050818103600083015261091e818461088f565b905092915050565b7f4e487b7100000000000000000000000000000000000000000000000000000000600052601160045260246000fd5b600061096082610582565b915061096b83610582565b925082820190508082111561098357610982610926565b5b92915050565b7f4e487b7100000000000000000000000000000000000000000000000000000000600052602260045260246000fd5b600060028204905060018216806109d057607f821691505b6020821081036109e3576109e2610989565b5b50919050565b60008190508160005260206000209050919050565b60006020601f8301049050919050565b60008160020a8302905092915050565b600060088302610a4e7fffffffffffffffffffffffffffffffffffffffffffffffffffffffffffffffff82610a0e565b610a588683610a0e565b95508019841693508086168417925050509392505050565b6000819050919050565b6000610a95610a90610a8b84610582565b610a70565b610582565b9050919050565b6000819050919050565b610aaf83610a7a565b610ac3610abb82610a9c565b848454610a1e565b825550505050565b600090565b610ad8610acb565b610ae3818484610aa6565b505050565b5b81811015610b0757610afc600082610ad0565b600181019050610ae9565b5050565b601f821115610b4c57610b1d816109e9565b610b26846109fe565b81016020851015610b35578190505b610b49610b41856109fe565b830182610ae8565b50505b505050565b60008160020a8304905092915050565b6000610b7260001984600802610b51565b1980831691505092915050565b6000610b8b8383610b61565b9150826002028217905092915050565b610ba48261066b565b67ffffffffffffffff811115610bbd57610bbc610457565b5b610bc782546109b8565b610bd2828285610b0b565b600060209050601f831160018114610c055760008415610bf3578287015190505b610bfd8582610b7f565b865550610c65565b601f198416610c13866109e9565b60005b82811015610c3b57848901518255600182019150602085019450602081019050610c16565b86831015610c585784890151610c54601f891682610b61565b8355505b6001600288020188555050505b50505050505056fea2646970667358221220ed082eefaf44c25285058655d7dbe333667e5e77687d098bc936d11bcb878f0b64736f6c63430008120033",
  "immutableReferences": {},
  "source": "// SPDX-License-Identifier: GPL-3.0\r\n\r\npragma solidity >=0.7.0 <0.9.0;\r\n\r\ncontract StudentListStorage {\r\n  struct Student {\r\n    uint id;\r\n    string name;\r\n    uint age;\r\n    address account;\r\n  }\r\n\r\n  Student[] public studentList;\r\n\r\n  // \r\n  function addList (string memory _name, uint _age) public returns(uint) {\r\n    uint count = studentList.length;\r\n    uint index = count+1;\r\n    // msg.sender \r\n    studentList.push(Student(index,_name,_age,msg.sender));\r\n    return studentList.length;\r\n  }\r\n\r\n  function getList() public view returns(Student[] memory){\r\n    return studentList;\r\n  }\r\n}",
  "sourcePath": "F:\\study\\web3\\kwin-web3\\myapp\\contract\\contracts\\StudentListStorage.sol",
  "compiler": {
    "name": "solc",
    "version": "0.8.18+commit.87f61d96.Emscripten.clang"
  },
  "schemaVersion": "3.4.12",
  "updatedAt": "2023-02-23T06:47:27.035Z",
  "networkType": "ethereum",
  "devdoc": {
    "kind": "dev",
    "methods": {},
    "version": 1
  },
  "userdoc": {
    "kind": "user",
    "methods": {},
    "version": 1
  }
}