{
  "contractName": "StudentStorage",
  "abi": [
    {
      "inputs": [],
      "name": "age",
      "outputs": [
        {
          "internalType": "uint256",
          "name": "",
          "type": "uint256"
        }
      ],
      "stateMutability": "view",
      "type": "function",
      "constant": true
    },
    {
      "inputs": [],
      "name": "name",
      "outputs": [
        {
          "internalType": "string",
          "name": "",
          "type": "string"
        }
      ],
      "stateMutability": "view",
      "type": "function",
      "constant": true
    },
    {
      "inputs": [
        {
          "internalType": "string",
          "name": "_name",
          "type": "string"
        },
        {
          "internalType": "uint256",
          "name": "_age",
          "type": "uint256"
        }
      ],
      "name": "setData",
      "outputs": [],
      "stateMutability": "nonpayable",
      "type": "function"
    },
    {
      "inputs": [],
      "name": "getData",
      "outputs": [
        {
          "internalType": "string",
          "name": "",
          "type": "string"
        },
        {
          "internalType": "uint256",
          "name": "",
          "type": "uint256"
        }
      ],
      "stateMutability": "view",
      "type": "function",
      "constant": true
    }
  ],
  "bytecode": "0x608060405234801561001057600080fd5b50610832806100206000396000f3fe608060405234801561001057600080fd5b5060043610610069576000357c01000000000000000000000000000000000000000000000000000000009004806306fdde031461006e578063262a9dff1461008c5780633bc5de30146100aa578063af22068e146100c9575b600080fd5b6100766100e5565b60405161008391906102c1565b60405180910390f35b610094610173565b6040516100a191906102fc565b60405180910390f35b6100b2610179565b6040516100c0929190610317565b60405180910390f35b6100e360048036038101906100de91906104bc565b610216565b005b600180546100f290610547565b80601f016020809104026020016040519081016040528092919081815260200182805461011e90610547565b801561016b5780601f106101405761010080835404028352916020019161016b565b820191906000526020600020905b81548152906001019060200180831161014e57829003601f168201915b505050505081565b60005481565b60606000600160005481805461018e90610547565b80601f01602080910402602001604051908101604052809291908181526020018280546101ba90610547565b80156102075780601f106101dc57610100808354040283529160200191610207565b820191906000526020600020905b8154815290600101906020018083116101ea57829003601f168201915b50505050509150915091509091565b8160019081610225919061072a565b50806000819055505050565b600081519050919050565b600082825260208201905092915050565b60005b8381101561026b578082015181840152602081019050610250565b60008484015250505050565b6000601f19601f8301169050919050565b600061029382610231565b61029d818561023c565b93506102ad81856020860161024d565b6102b681610277565b840191505092915050565b600060208201905081810360008301526102db8184610288565b905092915050565b6000819050919050565b6102f6816102e3565b82525050565b600060208201905061031160008301846102ed565b92915050565b600060408201905081810360008301526103318185610288565b905061034060208301846102ed565b9392505050565b6000604051905090565b600080fd5b600080fd5b600080fd5b600080fd5b7f4e487b7100000000000000000000000000000000000000000000000000000000600052604160045260246000fd5b61039d82610277565b810181811067ffffffffffffffff821117156103bc576103bb610365565b5b80604052505050565b60006103cf610347565b90506103db8282610394565b919050565b600067ffffffffffffffff8211156103fb576103fa610365565b5b61040482610277565b9050602081019050919050565b82818337600083830152505050565b600061043361042e846103e0565b6103c5565b90508281526020810184848401111561044f5761044e610360565b5b61045a848285610411565b509392505050565b600082601f8301126104775761047661035b565b5b8135610487848260208601610420565b91505092915050565b610499816102e3565b81146104a457600080fd5b50565b6000813590506104b681610490565b92915050565b600080604083850312156104d3576104d2610351565b5b600083013567ffffffffffffffff8111156104f1576104f0610356565b5b6104fd85828601610462565b925050602061050e858286016104a7565b9150509250929050565b7f4e487b7100000000000000000000000000000000000000000000000000000000600052602260045260246000fd5b6000600282049050600182168061055f57607f821691505b60208210810361057257610571610518565b5b50919050565b60008190508160005260206000209050919050565b60006020601f8301049050919050565b60008160020a8302905092915050565b6000600883026105dd7fffffffffffffffffffffffffffffffffffffffffffffffffffffffffffffffff8261059d565b6105e7868361059d565b95508019841693508086168417925050509392505050565b6000819050919050565b600061062461061f61061a846102e3565b6105ff565b6102e3565b9050919050565b6000819050919050565b61063e83610609565b61065261064a8261062b565b8484546105ad565b825550505050565b600090565b61066761065a565b610672818484610635565b505050565b5b818110156106965761068b60008261065f565b600181019050610678565b5050565b601f8211156106db576106ac81610578565b6106b58461058d565b810160208510156106c4578190505b6106d86106d08561058d565b830182610677565b50505b505050565b60008160020a8304905092915050565b6000610701600019846008026106e0565b1980831691505092915050565b600061071a83836106f0565b9150826002028217905092915050565b61073382610231565b67ffffffffffffffff81111561074c5761074b610365565b5b6107568254610547565b61076182828561069a565b600060209050601f8311600181146107945760008415610782578287015190505b61078c858261070e565b8655506107f4565b601f1984166107a286610578565b60005b828110156107ca578489015182556001820191506020850194506020810190506107a5565b868310156107e757848901516107e3601f8916826106f0565b8355505b6001600288020188555050505b50505050505056fea2646970667358221220894af74268bfb42e41e514da22134918cca6bfff18a7f5f0c1135fdedfc09cf764736f6c63430008120033",
  "immutableReferences": {},
  "source": "// SPDX-License-Identifier: GPL-3.0\r\n\r\npragma solidity >=0.7.0 <0.9.0;\r\n\r\ncontract StudentStorage {\r\n  uint public age;\r\n  string public name;\r\n\r\n  function setData (string memory _name, uint _age) public {\r\n    name = _name;\r\n    age = _age;\r\n  }\r\n\r\n  function getData() public view returns(string memory, uint){\r\n    return (name, age);\r\n  }\r\n}",
  "sourcePath": "F:\\study\\web3\\kwin-web3\\myapp\\contract\\contracts\\StudentStorage.sol",
  "compiler": {
    "name": "solc",
    "version": "0.8.18+commit.87f61d96.Emscripten.clang"
  },
  "schemaVersion": "3.4.12",
  "updatedAt": "2023-02-23T06:47:26.337Z",
  "networkType": "ethereum",
  "devdoc": {
    "kind": "dev",
    "methods": {},
    "version": 1
  },
  "userdoc": {
    "kind": "user",
    "methods": {},
    "version": 1
  }
}